:020000020000FC
:02000000FFC03F
:0200400026C1D7
:0200340034C1D5
:1002000008E00EBF0FEF0DBF00E204B90FEF07B912
:1002100000E10AB90FEF00936E0000E004BD05E0B5
:1002200005BD01E000936F0000E00093800005E051
:100230000093810099270FE0002E00E0102E7894A3
:100240000E943F01FDCF913019F091E05C9A089532
:1002500099275C98089501E0101619F0102E2D9A38
:10026000089500E0102E2D98089550EF60EF70EF84
:100270005A95F1F76A95E1F77A95D1F7089581E0FB
:1002800088B9880F0E9435018830D1F708950A9403
:1002900001E0001609F018950E94230118950E94AC
:0402A0002B01189581
:00000001FF
